{
  "contractName": "CoCoToken",
  "abi": [
    {
      "inputs": [],
      "stateMutability": "nonpayable",
      "type": "constructor"
    },
    {
      "anonymous": false,
      "inputs": [
        {
          "indexed": true,
          "internalType": "address",
          "name": "owner",
          "type": "address"
        },
        {
          "indexed": true,
          "internalType": "address",
          "name": "spender",
          "type": "address"
        },
        {
          "indexed": false,
          "internalType": "uint256",
          "name": "value",
          "type": "uint256"
        }
      ],
      "name": "Approval",
      "type": "event"
    },
    {
      "anonymous": false,
      "inputs": [
        {
          "indexed": true,
          "internalType": "address",
          "name": "preOwner",
          "type": "address"
        },
        {
          "indexed": true,
          "internalType": "address",
          "name": "nextOwner",
          "type": "address"
        }
      ],
      "name": "OwnershipTransferred",
      "type": "event"
    },
    {
      "anonymous": false,
      "inputs": [
        {
          "indexed": true,
          "internalType": "address",
          "name": "from",
          "type": "address"
        },
        {
          "indexed": true,
          "internalType": "address",
          "name": "to",
          "type": "address"
        },
        {
          "indexed": false,
          "internalType": "uint256",
          "name": "value",
          "type": "uint256"
        }
      ],
      "name": "Transfer",
      "type": "event"
    },
    {
      "inputs": [],
      "name": "_decimals",
      "outputs": [
        {
          "internalType": "uint8",
          "name": "",
          "type": "uint8"
        }
      ],
      "stateMutability": "view",
      "type": "function",
      "constant": true
    },
    {
      "inputs": [],
      "name": "owner",
      "outputs": [
        {
          "internalType": "address",
          "name": "",
          "type": "address"
        }
      ],
      "stateMutability": "view",
      "type": "function",
      "constant": true
    },
    {
      "inputs": [
        {
          "internalType": "address",
          "name": "newOwner",
          "type": "address"
        }
      ],
      "name": "transferOwnership",
      "outputs": [],
      "stateMutability": "nonpayable",
      "type": "function"
    },
    {
      "inputs": [],
      "name": "name",
      "outputs": [
        {
          "internalType": "string",
          "name": "",
          "type": "string"
        }
      ],
      "stateMutability": "view",
      "type": "function",
      "constant": true
    },
    {
      "inputs": [],
      "name": "symbol",
      "outputs": [
        {
          "internalType": "string",
          "name": "",
          "type": "string"
        }
      ],
      "stateMutability": "view",
      "type": "function",
      "constant": true
    },
    {
      "inputs": [],
      "name": "decimals",
      "outputs": [
        {
          "internalType": "uint8",
          "name": "",
          "type": "uint8"
        }
      ],
      "stateMutability": "view",
      "type": "function",
      "constant": true
    },
    {
      "inputs": [],
      "name": "totalSupply",
      "outputs": [
        {
          "internalType": "uint256",
          "name": "",
          "type": "uint256"
        }
      ],
      "stateMutability": "view",
      "type": "function",
      "constant": true
    },
    {
      "inputs": [
        {
          "internalType": "address",
          "name": "account",
          "type": "address"
        }
      ],
      "name": "balanceOf",
      "outputs": [
        {
          "internalType": "uint256",
          "name": "",
          "type": "uint256"
        }
      ],
      "stateMutability": "view",
      "type": "function",
      "constant": true
    },
    {
      "inputs": [
        {
          "internalType": "address",
          "name": "to",
          "type": "address"
        },
        {
          "internalType": "uint256",
          "name": "amount",
          "type": "uint256"
        }
      ],
      "name": "transfer",
      "outputs": [
        {
          "internalType": "bool",
          "name": "",
          "type": "bool"
        }
      ],
      "stateMutability": "nonpayable",
      "type": "function"
    },
    {
      "inputs": [
        {
          "internalType": "address",
          "name": "owner",
          "type": "address"
        },
        {
          "internalType": "address",
          "name": "spender",
          "type": "address"
        }
      ],
      "name": "allowance",
      "outputs": [
        {
          "internalType": "uint256",
          "name": "",
          "type": "uint256"
        }
      ],
      "stateMutability": "view",
      "type": "function",
      "constant": true
    },
    {
      "inputs": [
        {
          "internalType": "address",
          "name": "spender",
          "type": "address"
        },
        {
          "internalType": "uint256",
          "name": "amount",
          "type": "uint256"
        }
      ],
      "name": "approve",
      "outputs": [
        {
          "internalType": "bool",
          "name": "",
          "type": "bool"
        }
      ],
      "stateMutability": "nonpayable",
      "type": "function"
    },
    {
      "inputs": [
        {
          "internalType": "address",
          "name": "from",
          "type": "address"
        },
        {
          "internalType": "address",
          "name": "to",
          "type": "address"
        },
        {
          "internalType": "uint256",
          "name": "amount",
          "type": "uint256"
        }
      ],
      "name": "transferFrom",
      "outputs": [
        {
          "internalType": "bool",
          "name": "",
          "type": "bool"
        }
      ],
      "stateMutability": "nonpayable",
      "type": "function"
    },
    {
      "inputs": [
        {
          "internalType": "address",
          "name": "spender",
          "type": "address"
        },
        {
          "internalType": "uint256",
          "name": "addedValue",
          "type": "uint256"
        }
      ],
      "name": "increaseAllowance",
      "outputs": [
        {
          "internalType": "bool",
          "name": "",
          "type": "bool"
        }
      ],
      "stateMutability": "nonpayable",
      "type": "function"
    },
    {
      "inputs": [
        {
          "internalType": "address",
          "name": "spender",
          "type": "address"
        },
        {
          "internalType": "uint256",
          "name": "subtractedValue",
          "type": "uint256"
        }
      ],
      "name": "decreaseAllowance",
      "outputs": [
        {
          "internalType": "bool",
          "name": "",
          "type": "bool"
        }
      ],
      "stateMutability": "nonpayable",
      "type": "function"
    }
  ],
  "bytecode": "0x60806040523480156200001157600080fd5b50336000806101000a81548173ffffffffffffffffffffffffffffffffffffffff021916908373ffffffffffffffffffffffffffffffffffffffff1602179055506040518060400160405280600f81526020017f436f436f204661726d20546f6b656e0000000000000000000000000000000000815250600490805190602001906200009f92919062000189565b506040518060400160405280600481526020017f436f436f0000000000000000000000000000000000000000000000000000000081525060059080519060200190620000ed92919062000189565b506012600660006101000a81548160ff021916908360ff160217905550600660009054906101000a900460ff16600a1860ff166305f5e10062000131919062000239565b63ffffffff16600381905550600354600160003373ffffffffffffffffffffffffffffffffffffffff1673ffffffffffffffffffffffffffffffffffffffff1681526020019081526020016000208190555062000322565b82805462000197906200028e565b90600052602060002090601f016020900481019282620001bb576000855562000207565b82601f10620001d657805160ff191683800117855562000207565b8280016001018555821562000207579182015b8281111562000206578251825591602001919060010190620001e9565b5b5090506200021691906200021a565b5090565b5b80821115620002355760008160009055506001016200021b565b5090565b600062000246826200027e565b915062000253836200027e565b92508163ffffffff0483118215151615620002735762000272620002c4565b5b828202905092915050565b600063ffffffff82169050919050565b60006002820490506001821680620002a757607f821691505b60208210811415620002be57620002bd620002f3565b5b50919050565b7f4e487b7100000000000000000000000000000000000000000000000000000000600052601160045260246000fd5b7f4e487b7100000000000000000000000000000000000000000000000000000000600052602260045260246000fd5b61162680620003326000396000f3fe608060405234801561001057600080fd5b50600436106100ea5760003560e01c806370a082311161008c578063a457c2d711610066578063a457c2d714610263578063a9059cbb14610293578063dd62ed3e146102c3578063f2fde38b146102f3576100ea565b806370a08231146101f75780638da5cb5b1461022757806395d89b4114610245576100ea565b806323b872dd116100c857806323b872dd1461015b578063313ce5671461018b57806332424aa3146101a957806339509351146101c7576100ea565b806306fdde03146100ef578063095ea7b31461010d57806318160ddd1461013d575b600080fd5b6100f761030f565b60405161010491906112cf565b60405180910390f35b61012760048036038101906101229190610f04565b6103a1565b60405161013491906112b4565b60405180910390f35b6101456103c4565b60405161015291906113f1565b60405180910390f35b61017560048036038101906101709190610eb5565b6103ce565b60405161018291906112b4565b60405180910390f35b6101936103fd565b6040516101a0919061140c565b60405180910390f35b6101b1610406565b6040516101be919061140c565b60405180910390f35b6101e160048036038101906101dc9190610f04565b610419565b6040516101ee91906112b4565b60405180910390f35b610211600480360381019061020c9190610e50565b6104c3565b60405161021e91906113f1565b60405180910390f35b61022f61050c565b60405161023c9190611299565b60405180910390f35b61024d610535565b60405161025a91906112cf565b60405180910390f35b61027d60048036038101906102789190610f04565b6105c7565b60405161028a91906112b4565b60405180910390f35b6102ad60048036038101906102a89190610f04565b6106b1565b6040516102ba91906112b4565b60405180910390f35b6102dd60048036038101906102d89190610e79565b6106d4565b6040516102ea91906113f1565b60405180910390f35b61030d60048036038101906103089190610e50565b61075b565b005b60606004805461031e90611521565b80601f016020809104026020016040519081016040528092919081815260200182805461034a90611521565b80156103975780601f1061036c57610100808354040283529160200191610397565b820191906000526020600020905b81548152906001019060200180831161037a57829003601f168201915b5050505050905090565b6000806103ac610939565b90506103b9818585610941565b600191505092915050565b6000600354905090565b6000806103d9610939565b90506103e6858285610b0c565b6103f1858585610b98565b60019150509392505050565b60006012905090565b600660009054906101000a900460ff1681565b600080610424610939565b90506104b8818585600260008673ffffffffffffffffffffffffffffffffffffffff1673ffffffffffffffffffffffffffffffffffffffff16815260200190815260200160002060008973ffffffffffffffffffffffffffffffffffffffff1673ffffffffffffffffffffffffffffffffffffffff168152602001908152602001600020546104b39190611443565b610941565b600191505092915050565b6000600160008373ffffffffffffffffffffffffffffffffffffffff1673ffffffffffffffffffffffffffffffffffffffff168152602001908152602001600020549050919050565b60008060009054906101000a900473ffffffffffffffffffffffffffffffffffffffff16905090565b60606005805461054490611521565b80601f016020809104026020016040519081016040528092919081815260200182805461057090611521565b80156105bd5780601f10610592576101008083540402835291602001916105bd565b820191906000526020600020905b8154815290600101906020018083116105a057829003601f168201915b5050505050905090565b6000806105d2610939565b90506000600260008373ffffffffffffffffffffffffffffffffffffffff1673ffffffffffffffffffffffffffffffffffffffff16815260200190815260200160002060008673ffffffffffffffffffffffffffffffffffffffff1673ffffffffffffffffffffffffffffffffffffffff16815260200190815260200160002054905083811015610698576040517f08c379a000000000000000000000000000000000000000000000000000000000815260040161068f906113d1565b60405180910390fd5b6106a58286868403610941565b60019250505092915050565b6000806106bc610939565b90506106c9818585610b98565b600191505092915050565b6000600260008473ffffffffffffffffffffffffffffffffffffffff1673ffffffffffffffffffffffffffffffffffffffff16815260200190815260200160002060008373ffffffffffffffffffffffffffffffffffffffff1673ffffffffffffffffffffffffffffffffffffffff16815260200190815260200160002054905092915050565b60008054906101000a900473ffffffffffffffffffffffffffffffffffffffff1673ffffffffffffffffffffffffffffffffffffffff163373ffffffffffffffffffffffffffffffffffffffff16146107e9576040517f08c379a00000000000000000000000000000000000000000000000000000000081526004016107e090611371565b60405180910390fd5b60008054906101000a900473ffffffffffffffffffffffffffffffffffffffff1673ffffffffffffffffffffffffffffffffffffffff168173ffffffffffffffffffffffffffffffffffffffff16141561084257600080fd5b600073ffffffffffffffffffffffffffffffffffffffff168173ffffffffffffffffffffffffffffffffffffffff16141561087c57600080fd5b806000806101000a81548173ffffffffffffffffffffffffffffffffffffffff021916908373ffffffffffffffffffffffffffffffffffffffff1602179055508073ffffffffffffffffffffffffffffffffffffffff1660008054906101000a900473ffffffffffffffffffffffffffffffffffffffff1673ffffffffffffffffffffffffffffffffffffffff167f8be0079c531659141344cd1fd0a4f28419497f9722a3daafe3b4186f6b6457e060405160405180910390a350565b600033905090565b600073ffffffffffffffffffffffffffffffffffffffff168373ffffffffffffffffffffffffffffffffffffffff1614156109b1576040517f08c379a00000000000000000000000000000000000000000000000000000000081526004016109a8906113b1565b60405180910390fd5b600073ffffffffffffffffffffffffffffffffffffffff168273ffffffffffffffffffffffffffffffffffffffff161415610a21576040517f08c379a0000000000000000000000000000000000000000000000000000000008152600401610a1890611311565b60405180910390fd5b80600260008573ffffffffffffffffffffffffffffffffffffffff1673ffffffffffffffffffffffffffffffffffffffff16815260200190815260200160002060008473ffffffffffffffffffffffffffffffffffffffff1673ffffffffffffffffffffffffffffffffffffffff168152602001908152602001600020819055508173ffffffffffffffffffffffffffffffffffffffff168373ffffffffffffffffffffffffffffffffffffffff167f8c5be1e5ebec7d5bd14f71427d1e84f3dd0314c0f7b2291e5b200ac8c7c3b92583604051610aff91906113f1565b60405180910390a3505050565b6000610b1884846106d4565b90507fffffffffffffffffffffffffffffffffffffffffffffffffffffffffffffffff8114610b925781811015610b84576040517f08c379a0000000000000000000000000000000000000000000000000000000008152600401610b7b90611331565b60405180910390fd5b610b918484848403610941565b5b50505050565b600073ffffffffffffffffffffffffffffffffffffffff168373ffffffffffffffffffffffffffffffffffffffff161415610c08576040517f08c379a0000000000000000000000000000000000000000000000000000000008152600401610bff90611391565b60405180910390fd5b600073ffffffffffffffffffffffffffffffffffffffff168273ffffffffffffffffffffffffffffffffffffffff161415610c78576040517f08c379a0000000000000000000000000000000000000000000000000000000008152600401610c6f906112f1565b60405180910390fd5b610c83838383610e1c565b6000600160008573ffffffffffffffffffffffffffffffffffffffff1673ffffffffffffffffffffffffffffffffffffffff16815260200190815260200160002054905081811015610d0a576040517f08c379a0000000000000000000000000000000000000000000000000000000008152600401610d0190611351565b60405180910390fd5b818103600160008673ffffffffffffffffffffffffffffffffffffffff1673ffffffffffffffffffffffffffffffffffffffff1681526020019081526020016000208190555081600160008573ffffffffffffffffffffffffffffffffffffffff1673ffffffffffffffffffffffffffffffffffffffff1681526020019081526020016000206000828254610d9f9190611443565b925050819055508273ffffffffffffffffffffffffffffffffffffffff168473ffffffffffffffffffffffffffffffffffffffff167fddf252ad1be2c89b69c2b068fc378daa952ba7f163c4a11628f55a4df523b3ef84604051610e0391906113f1565b60405180910390a3610e16848484610e21565b50505050565b505050565b505050565b600081359050610e35816115c2565b92915050565b600081359050610e4a816115d9565b92915050565b600060208284031215610e6257600080fd5b6000610e7084828501610e26565b91505092915050565b60008060408385031215610e8c57600080fd5b6000610e9a85828601610e26565b9250506020610eab85828601610e26565b9150509250929050565b600080600060608486031215610eca57600080fd5b6000610ed886828701610e26565b9350506020610ee986828701610e26565b9250506040610efa86828701610e3b565b9150509250925092565b60008060408385031215610f1757600080fd5b6000610f2585828601610e26565b9250506020610f3685828601610e3b565b9150509250929050565b610f4981611499565b82525050565b610f58816114ab565b82525050565b6000610f6982611427565b610f738185611432565b9350610f838185602086016114ee565b610f8c816115b1565b840191505092915050565b6000610fa4602383611432565b91507f45524332303a207472616e7366657220746f20746865207a65726f206164647260008301527f65737300000000000000000000000000000000000000000000000000000000006020830152604082019050919050565b600061100a602283611432565b91507f45524332303a20617070726f766520746f20746865207a65726f20616464726560008301527f73730000000000000000000000000000000000000000000000000000000000006020830152604082019050919050565b6000611070601d83611432565b91507f45524332303a20696e73756666696369656e7420616c6c6f77616e63650000006000830152602082019050919050565b60006110b0602683611432565b91507f45524332303a207472616e7366657220616d6f756e742065786365656473206260008301527f616c616e636500000000000000000000000000000000000000000000000000006020830152604082019050919050565b6000611116602083611432565b91507f4f776e657248656c7065723a2063616c6c6572206973206e6f74206f776e65726000830152602082019050919050565b6000611156602583611432565b91507f45524332303a207472616e736665722066726f6d20746865207a65726f20616460008301527f64726573730000000000000000000000000000000000000000000000000000006020830152604082019050919050565b60006111bc602483611432565b91507f45524332303a20617070726f76652066726f6d20746865207a65726f2061646460008301527f72657373000000000000000000000000000000000000000000000000000000006020830152604082019050919050565b6000611222602583611432565b91507f45524332303a2064656372656173656420616c6c6f77616e63652062656c6f7760008301527f207a65726f0000000000000000000000000000000000000000000000000000006020830152604082019050919050565b611284816114d7565b82525050565b611293816114e1565b82525050565b60006020820190506112ae6000830184610f40565b92915050565b60006020820190506112c96000830184610f4f565b92915050565b600060208201905081810360008301526112e98184610f5e565b905092915050565b6000602082019050818103600083015261130a81610f97565b9050919050565b6000602082019050818103600083015261132a81610ffd565b9050919050565b6000602082019050818103600083015261134a81611063565b9050919050565b6000602082019050818103600083015261136a816110a3565b9050919050565b6000602082019050818103600083015261138a81611109565b9050919050565b600060208201905081810360008301526113aa81611149565b9050919050565b600060208201905081810360008301526113ca816111af565b9050919050565b600060208201905081810360008301526113ea81611215565b9050919050565b6000602082019050611406600083018461127b565b92915050565b6000602082019050611421600083018461128a565b92915050565b600081519050919050565b600082825260208201905092915050565b600061144e826114d7565b9150611459836114d7565b9250827fffffffffffffffffffffffffffffffffffffffffffffffffffffffffffffffff0382111561148e5761148d611553565b5b828201905092915050565b60006114a4826114b7565b9050919050565b60008115159050919050565b600073ffffffffffffffffffffffffffffffffffffffff82169050919050565b6000819050919050565b600060ff82169050919050565b60005b8381101561150c5780820151818401526020810190506114f1565b8381111561151b576000848401525b50505050565b6000600282049050600182168061153957607f821691505b6020821081141561154d5761154c611582565b5b50919050565b7f4e487b7100000000000000000000000000000000000000000000000000000000600052601160045260246000fd5b7f4e487b7100000000000000000000000000000000000000000000000000000000600052602260045260246000fd5b6000601f19601f8301169050919050565b6115cb81611499565b81146115d657600080fd5b50565b6115e2816114d7565b81146115ed57600080fd5b5056fea2646970667358221220978c9bdc5320eca88f22ffe62d738b07bb0a8dbdaa506ab4f976518498606ad464736f6c63430008000033",
  "immutableReferences": {},
  "source": "// SPDX-License-Identifier: MIT\npragma solidity ^0.8.0;\n\ninterface InterERC20 {\n    function totalSupply() external view returns (uint256);\n    function balanceOf(address account) external view returns (uint256);\n    function transfer(address to, uint256 amount) external returns (bool);\n    function allowance(address owner, address spender) external view returns (uint256);\n    function approve(address spender, uint256 amount) external returns (bool);\n    function transferFrom(address from, address to, uint256 amount) external returns (bool);\n    function name() external view returns (string memory);\n    function symbol() external view returns (string memory);\n    function decimals() external view returns (uint8);\n\n    event Transfer(address indexed from, address indexed to, uint256 value);\n    event Approval(address indexed owner, address indexed spender, uint256 value);\n}\n\nabstract contract Context {\n    function _msgSender() internal view virtual returns (address) {\n        return msg.sender;\n    }\n    function _msgData() internal view virtual returns (bytes calldata) {\n        return msg.data;\n    }\n}\n\nabstract contract OwnerHelper {\n  \taddress private _owner;\n\n  \tevent OwnershipTransferred(address indexed preOwner, address indexed nextOwner);\n\n  \tmodifier onlyOwner {\n\t\trequire(msg.sender == _owner, \"OwnerHelper: caller is not owner\");\n\t\t_;\n  \t}\n\n  \tconstructor() {\n\t\t_owner = msg.sender;\n  \t}\n\n  \tfunction owner() public view virtual returns (address) {\n\t\treturn _owner;\n  \t}\n\n  \tfunction transferOwnership(address newOwner) onlyOwner public {\n\t\trequire(newOwner != _owner);\n\t\trequire(newOwner != address(0x0));\n\t\t_owner = newOwner;\n\t\temit OwnershipTransferred(_owner, newOwner);\n  \t}\n}\n\ncontract CoCoToken is Context, InterERC20, OwnerHelper {\n    mapping(address => uint256) private _balances;\n    mapping(address => mapping(address => uint256)) private _allowances;\n\n    uint256 private _totalSupply;\n    string private _name;\n    string private _symbol;\n    uint8 public _decimals;\n\n    constructor() {\n        _name = \"CoCo Farm Token\";\n        _symbol = \"CoCo\";\n        _decimals = 18;\n        _totalSupply = 100000000 * (10 ^ _decimals);\n        _balances[msg.sender] = _totalSupply;\n    }\n\n    function name() public view virtual override returns (string memory) {\n        return _name;\n    }\n\n    function symbol() public view virtual override returns (string memory) {\n        return _symbol;\n    }\n\n    function decimals() public view virtual override returns (uint8) {\n        return 18;\n    }\n\n    function totalSupply() public view virtual override returns (uint256) {\n        return _totalSupply;\n    }\n\n    function balanceOf(address account) public view virtual override returns (uint256) {\n        return _balances[account];\n    }\n\n    function transfer(address to, uint256 amount) public virtual override returns (bool) {\n        address owner = _msgSender();\n        _transfer(owner, to, amount);\n        return true;\n    }\n\n    function allowance(address owner, address spender) public view virtual override returns (uint256) {\n        return _allowances[owner][spender];\n    }\n\n    function approve(address spender, uint256 amount) public virtual override returns (bool) {\n        address owner = _msgSender();\n        _approve(owner, spender, amount);\n        return true;\n    }\n\n    function transferFrom(address from, address to, uint256 amount) public virtual override returns (bool) {\n        address spender = _msgSender();\n        _spendAllowance(from, spender, amount);\n        _transfer(from, to, amount);\n        return true;\n    }\n\n    function increaseAllowance(address spender, uint256 addedValue) public virtual returns (bool) {\n        address owner = _msgSender();\n        _approve(owner, spender, _allowances[owner][spender] + addedValue);\n        return true;\n    }\n\n    function decreaseAllowance(address spender, uint256 subtractedValue) public virtual returns (bool) {\n        address owner = _msgSender();\n        uint256 currentAllowance = _allowances[owner][spender];\n        require(currentAllowance >= subtractedValue, \"ERC20: decreased allowance below zero\");\n        unchecked {_approve(owner, spender, currentAllowance - subtractedValue);}\n        return true;\n    }\n\n    function _transfer(address from, address to, uint256 amount) internal virtual {\n        require(from != address(0), \"ERC20: transfer from the zero address\");\n        require(to != address(0), \"ERC20: transfer to the zero address\");\n        _beforeTokenTransfer(from, to, amount);\n        uint256 fromBalance = _balances[from];\n        require(fromBalance >= amount, \"ERC20: transfer amount exceeds balance\");\n        unchecked {_balances[from] = fromBalance - amount;}\n        _balances[to] += amount;\n        emit Transfer(from, to, amount);\n        _afterTokenTransfer(from, to, amount);\n    }\n\n    function _mint(address account, uint256 amount) internal virtual {\n        require(account != address(0), \"ERC20: mint to the zero address\");\n        _beforeTokenTransfer(address(0), account, amount);\n        _totalSupply += amount;\n        _balances[account] += amount;\n        emit Transfer(address(0), account, amount);\n        _afterTokenTransfer(address(0), account, amount);\n    }\n\n    function _burn(address account, uint256 amount) internal virtual {\n        require(account != address(0), \"ERC20: burn from the zero address\");\n        _beforeTokenTransfer(account, address(0), amount);\n        uint256 accountBalance = _balances[account];\n        require(accountBalance >= amount, \"ERC20: burn amount exceeds balance\");\n        unchecked {_balances[account] = accountBalance - amount;}\n        _totalSupply -= amount;\n        emit Transfer(account, address(0), amount);\n        _afterTokenTransfer(account, address(0), amount);\n    }\n\n    function _approve(address owner, address spender, uint256 amount) internal virtual {\n        require(owner != address(0), \"ERC20: approve from the zero address\");\n        require(spender != address(0), \"ERC20: approve to the zero address\");\n        _allowances[owner][spender] = amount;\n        emit Approval(owner, spender, amount);\n    }\n\n    function _spendAllowance(address owner, address spender, uint256 amount) internal virtual {\n        uint256 currentAllowance = allowance(owner, spender);\n        if (currentAllowance != type(uint256).max) {\n            require(currentAllowance >= amount, \"ERC20: insufficient allowance\");\n            unchecked {_approve(owner, spender, currentAllowance - amount);}\n        }\n    }\n\n    function _beforeTokenTransfer(address from, address to, uint256 amount) internal virtual {}\n\n    function _afterTokenTransfer(address from, address to, uint256 amount) internal virtual {}\n}\n",
  "sourcePath": "/Users/mike/Desktop/beb-03-second-05-CoCoFarm/contract/contracts/CoCoToken.sol",
  "compiler": {
    "name": "solc",
    "version": "0.8.0+commit.c7dfd78e.Emscripten.clang"
  },
  "schemaVersion": "3.4.7",
  "updatedAt": "2022-04-21T06:05:32.546Z",
  "networkType": "ethereum",
  "devdoc": {
    "kind": "dev",
    "methods": {},
    "version": 1
  },
  "userdoc": {
    "kind": "user",
    "methods": {},
    "version": 1
  }
}