{
  "contractName": "CoCoToken",
  "abi": [
    {
      "inputs": [],
      "stateMutability": "nonpayable",
      "type": "constructor"
    },
    {
      "anonymous": false,
      "inputs": [
        {
          "indexed": true,
          "internalType": "address",
          "name": "owner",
          "type": "address"
        },
        {
          "indexed": true,
          "internalType": "address",
          "name": "spender",
          "type": "address"
        },
        {
          "indexed": false,
          "internalType": "uint256",
          "name": "value",
          "type": "uint256"
        }
      ],
      "name": "Approval",
      "type": "event"
    },
    {
      "anonymous": false,
      "inputs": [
        {
          "indexed": true,
          "internalType": "address",
          "name": "preOwner",
          "type": "address"
        },
        {
          "indexed": true,
          "internalType": "address",
          "name": "nextOwner",
          "type": "address"
        }
      ],
      "name": "OwnershipTransferred",
      "type": "event"
    },
    {
      "anonymous": false,
      "inputs": [
        {
          "indexed": true,
          "internalType": "address",
          "name": "from",
          "type": "address"
        },
        {
          "indexed": true,
          "internalType": "address",
          "name": "to",
          "type": "address"
        },
        {
          "indexed": false,
          "internalType": "uint256",
          "name": "value",
          "type": "uint256"
        }
      ],
      "name": "Transfer",
      "type": "event"
    },
    {
      "inputs": [],
      "name": "_decimals",
      "outputs": [
        {
          "internalType": "uint8",
          "name": "",
          "type": "uint8"
        }
      ],
      "stateMutability": "view",
      "type": "function",
      "constant": true
    },
    {
      "inputs": [
        {
          "internalType": "address",
          "name": "newOwner",
          "type": "address"
        }
      ],
      "name": "giveOwnership",
      "outputs": [],
      "stateMutability": "nonpayable",
      "type": "function"
    },
    {
      "inputs": [
        {
          "internalType": "address",
          "name": "preOwner",
          "type": "address"
        },
        {
          "internalType": "address",
          "name": "newOwner",
          "type": "address"
        }
      ],
      "name": "transferOwnership",
      "outputs": [],
      "stateMutability": "nonpayable",
      "type": "function"
    },
    {
      "inputs": [
        {
          "internalType": "string",
          "name": "agenda",
          "type": "string"
        }
      ],
      "name": "listenMyopinion",
      "outputs": [],
      "stateMutability": "nonpayable",
      "type": "function"
    },
    {
      "inputs": [
        {
          "internalType": "string",
          "name": "agenda",
          "type": "string"
        }
      ],
      "name": "voteYouropinion",
      "outputs": [],
      "stateMutability": "nonpayable",
      "type": "function"
    },
    {
      "inputs": [
        {
          "internalType": "string",
          "name": "agenda",
          "type": "string"
        }
      ],
      "name": "voteCheck",
      "outputs": [
        {
          "internalType": "bool",
          "name": "result",
          "type": "bool"
        }
      ],
      "stateMutability": "view",
      "type": "function",
      "constant": true
    },
    {
      "inputs": [],
      "name": "name",
      "outputs": [
        {
          "internalType": "string",
          "name": "",
          "type": "string"
        }
      ],
      "stateMutability": "view",
      "type": "function",
      "constant": true
    },
    {
      "inputs": [],
      "name": "symbol",
      "outputs": [
        {
          "internalType": "string",
          "name": "",
          "type": "string"
        }
      ],
      "stateMutability": "view",
      "type": "function",
      "constant": true
    },
    {
      "inputs": [],
      "name": "decimals",
      "outputs": [
        {
          "internalType": "uint8",
          "name": "",
          "type": "uint8"
        }
      ],
      "stateMutability": "view",
      "type": "function",
      "constant": true
    },
    {
      "inputs": [],
      "name": "totalSupply",
      "outputs": [
        {
          "internalType": "uint256",
          "name": "",
          "type": "uint256"
        }
      ],
      "stateMutability": "view",
      "type": "function",
      "constant": true
    },
    {
      "inputs": [
        {
          "internalType": "address",
          "name": "account",
          "type": "address"
        }
      ],
      "name": "balanceOf",
      "outputs": [
        {
          "internalType": "uint256",
          "name": "",
          "type": "uint256"
        }
      ],
      "stateMutability": "view",
      "type": "function",
      "constant": true
    },
    {
      "inputs": [
        {
          "internalType": "address",
          "name": "account",
          "type": "address"
        }
      ],
      "name": "isOwner",
      "outputs": [
        {
          "internalType": "bool",
          "name": "",
          "type": "bool"
        }
      ],
      "stateMutability": "view",
      "type": "function",
      "constant": true
    },
    {
      "inputs": [
        {
          "internalType": "address",
          "name": "to",
          "type": "address"
        },
        {
          "internalType": "uint256",
          "name": "amount",
          "type": "uint256"
        }
      ],
      "name": "transfer",
      "outputs": [
        {
          "internalType": "bool",
          "name": "",
          "type": "bool"
        }
      ],
      "stateMutability": "nonpayable",
      "type": "function"
    },
    {
      "inputs": [
        {
          "internalType": "address",
          "name": "owner",
          "type": "address"
        },
        {
          "internalType": "address",
          "name": "spender",
          "type": "address"
        }
      ],
      "name": "allowance",
      "outputs": [
        {
          "internalType": "uint256",
          "name": "",
          "type": "uint256"
        }
      ],
      "stateMutability": "view",
      "type": "function",
      "constant": true
    },
    {
      "inputs": [
        {
          "internalType": "address",
          "name": "spender",
          "type": "address"
        },
        {
          "internalType": "uint256",
          "name": "amount",
          "type": "uint256"
        }
      ],
      "name": "approve",
      "outputs": [
        {
          "internalType": "bool",
          "name": "",
          "type": "bool"
        }
      ],
      "stateMutability": "nonpayable",
      "type": "function"
    },
    {
      "inputs": [
        {
          "internalType": "address",
          "name": "from",
          "type": "address"
        },
        {
          "internalType": "address",
          "name": "to",
          "type": "address"
        },
        {
          "internalType": "uint256",
          "name": "amount",
          "type": "uint256"
        }
      ],
      "name": "transferFrom",
      "outputs": [
        {
          "internalType": "bool",
          "name": "",
          "type": "bool"
        }
      ],
      "stateMutability": "nonpayable",
      "type": "function"
    },
    {
      "inputs": [
        {
          "internalType": "address",
          "name": "spender",
          "type": "address"
        },
        {
          "internalType": "uint256",
          "name": "addedValue",
          "type": "uint256"
        }
      ],
      "name": "increaseAllowance",
      "outputs": [
        {
          "internalType": "bool",
          "name": "",
          "type": "bool"
        }
      ],
      "stateMutability": "nonpayable",
      "type": "function"
    },
    {
      "inputs": [
        {
          "internalType": "address",
          "name": "spender",
          "type": "address"
        },
        {
          "internalType": "uint256",
          "name": "subtractedValue",
          "type": "uint256"
        }
      ],
      "name": "decreaseAllowance",
      "outputs": [
        {
          "internalType": "bool",
          "name": "",
          "type": "bool"
        }
      ],
      "stateMutability": "nonpayable",
      "type": "function"
    }
  ],
  "bytecode": "0x60806040523480156200001157600080fd5b50336000803373ffffffffffffffffffffffffffffffffffffffff1673ffffffffffffffffffffffffffffffffffffffff16815260200190815260200160002060006101000a81548173ffffffffffffffffffffffffffffffffffffffff021916908373ffffffffffffffffffffffffffffffffffffffff160217905550600180604051620000a090620002f6565b9081526020016040518091039020819055506040518060400160405280600f81526020017f436f436f204661726d20546f6b656e000000000000000000000000000000000081525060079080519060200190620000ff929190620001eb565b506040518060400160405280600481526020017f436f436f00000000000000000000000000000000000000000000000000000000815250600890805190602001906200014d929190620001eb565b506006600960006101000a81548160ff021916908360ff160217905550600960009054906101000a900460ff16600a620001889190620004a7565b6305f5e100620001999190620004f8565b600681905550600654600260003373ffffffffffffffffffffffffffffffffffffffff1673ffffffffffffffffffffffffffffffffffffffff16815260200190815260200160002081905550620005be565b828054620001f99062000588565b90600052602060002090601f0160209004810192826200021d576000855562000269565b82601f106200023857805160ff191683800117855562000269565b8280016001018555821562000269579182015b82811115620002685782518255916020019190600101906200024b565b5b5090506200027891906200027c565b5090565b5b80821115620002975760008160009055506001016200027d565b5090565b600081905092915050565b7f6f776e6572636e74000000000000000000000000000000000000000000000000600082015250565b6000620002de6008836200029b565b9150620002eb82620002a6565b600882019050919050565b60006200030382620002cf565b9150819050919050565b7f4e487b7100000000000000000000000000000000000000000000000000000000600052601160045260246000fd5b60008160011c9050919050565b6000808291508390505b60018511156200039b578086048111156200037357620003726200030d565b5b6001851615620003835780820291505b808102905062000393856200033c565b945062000353565b94509492505050565b600082620003b6576001905062000489565b81620003c6576000905062000489565b8160018114620003df5760028114620003ea5762000420565b600191505062000489565b60ff841115620003ff57620003fe6200030d565b5b8360020a9150848211156200041957620004186200030d565b5b5062000489565b5060208310610133831016604e8410600b84101617156200045a5782820a9050838111156200045457620004536200030d565b5b62000489565b62000469848484600162000349565b925090508184048111156200048357620004826200030d565b5b81810290505b9392505050565b6000819050919050565b600060ff82169050919050565b6000620004b48262000490565b9150620004c1836200049a565b9250620004f07fffffffffffffffffffffffffffffffffffffffffffffffffffffffffffffffff8484620003a4565b905092915050565b6000620005058262000490565b9150620005128362000490565b9250817fffffffffffffffffffffffffffffffffffffffffffffffffffffffffffffffff04831182151516156200054e576200054d6200030d565b5b828202905092915050565b7f4e487b7100000000000000000000000000000000000000000000000000000000600052602260045260246000fd5b60006002820490506001821680620005a157607f821691505b60208210811415620005b857620005b762000559565b5b50919050565b61241280620005ce6000396000f3fe608060405234801561001057600080fd5b50600436106101165760003560e01c80636d435421116100a2578063a9059cbb11610071578063a9059cbb14610309578063ab678b6314610339578063b5ff591b14610369578063dd62ed3e14610385578063e3a0a148146103b557610116565b80636d4354211461026f57806370a082311461028b57806395d89b41146102bb578063a457c2d7146102d957610116565b80632f54bf6e116100e95780632f54bf6e146101b7578063313ce567146101e757806332424aa31461020557806339509351146102235780635de5eb211461025357610116565b806306fdde031461011b578063095ea7b31461013957806318160ddd1461016957806323b872dd14610187575b600080fd5b6101236103d1565b60405161013091906119f0565b60405180910390f35b610153600480360381019061014e9190611aba565b610463565b6040516101609190611b15565b60405180910390f35b610171610486565b60405161017e9190611b3f565b60405180910390f35b6101a1600480360381019061019c9190611b5a565b610490565b6040516101ae9190611b15565b60405180910390f35b6101d160048036038101906101cc9190611bad565b6104bf565b6040516101de9190611b15565b60405180910390f35b6101ef610560565b6040516101fc9190611bf6565b60405180910390f35b61020d610569565b60405161021a9190611bf6565b60405180910390f35b61023d60048036038101906102389190611aba565b61057c565b60405161024a9190611b15565b60405180910390f35b61026d60048036038101906102689190611d46565b610626565b005b61028960048036038101906102849190611d8f565b610849565b005b6102a560048036038101906102a09190611bad565b610bb8565b6040516102b29190611b3f565b60405180910390f35b6102c3610c01565b6040516102d091906119f0565b60405180910390f35b6102f360048036038101906102ee9190611aba565b610c93565b6040516103009190611b15565b60405180910390f35b610323600480360381019061031e9190611aba565b610d7d565b6040516103309190611b15565b60405180910390f35b610353600480360381019061034e9190611d46565b610da0565b6040516103609190611b15565b60405180910390f35b610383600480360381019061037e9190611d46565b610df7565b005b61039f600480360381019061039a9190611d8f565b6110fe565b6040516103ac9190611b3f565b60405180910390f35b6103cf60048036038101906103ca9190611bad565b611185565b005b6060600780546103e090611dfe565b80601f016020809104026020016040519081016040528092919081815260200182805461040c90611dfe565b80156104595780601f1061042e57610100808354040283529160200191610459565b820191906000526020600020905b81548152906001019060200180831161043c57829003601f168201915b5050505050905090565b60008061046e61143e565b905061047b818585611446565b600191505092915050565b6000600654905090565b60008061049b61143e565b90506104a8858285611611565b6104b385858561169d565b60019150509392505050565b60008060008373ffffffffffffffffffffffffffffffffffffffff1673ffffffffffffffffffffffffffffffffffffffff16815260200190815260200160002060009054906101000a900473ffffffffffffffffffffffffffffffffffffffff1673ffffffffffffffffffffffffffffffffffffffff168273ffffffffffffffffffffffffffffffffffffffff161461055757600080fd5b60019050919050565b60006006905090565b600960009054906101000a900460ff1681565b60008061058761143e565b905061061b818585600560008673ffffffffffffffffffffffffffffffffffffffff1673ffffffffffffffffffffffffffffffffffffffff16815260200190815260200160002060008973ffffffffffffffffffffffffffffffffffffffff1673ffffffffffffffffffffffffffffffffffffffff168152602001908152602001600020546106169190611e5f565b611446565b600191505092915050565b6000803373ffffffffffffffffffffffffffffffffffffffff1673ffffffffffffffffffffffffffffffffffffffff16815260200190815260200160002060009054906101000a900473ffffffffffffffffffffffffffffffffffffffff1673ffffffffffffffffffffffffffffffffffffffff163373ffffffffffffffffffffffffffffffffffffffff16146106f2576040517f08c379a00000000000000000000000000000000000000000000000000000000081526004016106e990611f01565b60405180910390fd5b6000803373ffffffffffffffffffffffffffffffffffffffff1673ffffffffffffffffffffffffffffffffffffffff16815260200190815260200160002060009054906101000a900473ffffffffffffffffffffffffffffffffffffffff1673ffffffffffffffffffffffffffffffffffffffff163373ffffffffffffffffffffffffffffffffffffffff161461078857600080fd5b336003826040516107999190611f5d565b908152602001604051809103902060003373ffffffffffffffffffffffffffffffffffffffff1673ffffffffffffffffffffffffffffffffffffffff16815260200190815260200160002060006101000a81548173ffffffffffffffffffffffffffffffffffffffff021916908373ffffffffffffffffffffffffffffffffffffffff16021790555060016004826040516108349190611f5d565b90815260200160405180910390208190555050565b6000803373ffffffffffffffffffffffffffffffffffffffff1673ffffffffffffffffffffffffffffffffffffffff16815260200190815260200160002060009054906101000a900473ffffffffffffffffffffffffffffffffffffffff1673ffffffffffffffffffffffffffffffffffffffff163373ffffffffffffffffffffffffffffffffffffffff1614610915576040517f08c379a000000000000000000000000000000000000000000000000000000000815260040161090c90611f01565b60405180910390fd5b6000808273ffffffffffffffffffffffffffffffffffffffff1673ffffffffffffffffffffffffffffffffffffffff16815260200190815260200160002060009054906101000a900473ffffffffffffffffffffffffffffffffffffffff1673ffffffffffffffffffffffffffffffffffffffff168173ffffffffffffffffffffffffffffffffffffffff1614156109ac57600080fd5b6000808373ffffffffffffffffffffffffffffffffffffffff1673ffffffffffffffffffffffffffffffffffffffff16815260200190815260200160002060009054906101000a900473ffffffffffffffffffffffffffffffffffffffff1673ffffffffffffffffffffffffffffffffffffffff168273ffffffffffffffffffffffffffffffffffffffff1614610a4257600080fd5b600073ffffffffffffffffffffffffffffffffffffffff168173ffffffffffffffffffffffffffffffffffffffff161415610a7c57600080fd5b6000808373ffffffffffffffffffffffffffffffffffffffff1673ffffffffffffffffffffffffffffffffffffffff16815260200190815260200160002060006101000a81549073ffffffffffffffffffffffffffffffffffffffff0219169055806000808373ffffffffffffffffffffffffffffffffffffffff1673ffffffffffffffffffffffffffffffffffffffff16815260200190815260200160002060006101000a81548173ffffffffffffffffffffffffffffffffffffffff021916908373ffffffffffffffffffffffffffffffffffffffff1602179055508073ffffffffffffffffffffffffffffffffffffffff168273ffffffffffffffffffffffffffffffffffffffff167f8be0079c531659141344cd1fd0a4f28419497f9722a3daafe3b4186f6b6457e060405160405180910390a35050565b6000600260008373ffffffffffffffffffffffffffffffffffffffff1673ffffffffffffffffffffffffffffffffffffffff168152602001908152602001600020549050919050565b606060088054610c1090611dfe565b80601f0160208091040260200160405190810160405280929190818152602001828054610c3c90611dfe565b8015610c895780601f10610c5e57610100808354040283529160200191610c89565b820191906000526020600020905b815481529060010190602001808311610c6c57829003601f168201915b5050505050905090565b600080610c9e61143e565b90506000600560008373ffffffffffffffffffffffffffffffffffffffff1673ffffffffffffffffffffffffffffffffffffffff16815260200190815260200160002060008673ffffffffffffffffffffffffffffffffffffffff1673ffffffffffffffffffffffffffffffffffffffff16815260200190815260200160002054905083811015610d64576040517f08c379a0000000000000000000000000000000000000000000000000000000008152600401610d5b90611fe6565b60405180910390fd5b610d718286868403611446565b60019250505092915050565b600080610d8861143e565b9050610d9581858561169d565b600191505092915050565b60006001604051610db090612052565b908152602001604051809103902054600483604051610dcf9190611f5d565b9081526020016040518091039020541415610ded5760019050610df2565b600090505b919050565b6000803373ffffffffffffffffffffffffffffffffffffffff1673ffffffffffffffffffffffffffffffffffffffff16815260200190815260200160002060009054906101000a900473ffffffffffffffffffffffffffffffffffffffff1673ffffffffffffffffffffffffffffffffffffffff163373ffffffffffffffffffffffffffffffffffffffff1614610ec3576040517f08c379a0000000000000000000000000000000000000000000000000000000008152600401610eba90611f01565b60405180910390fd5b6000803373ffffffffffffffffffffffffffffffffffffffff1673ffffffffffffffffffffffffffffffffffffffff16815260200190815260200160002060009054906101000a900473ffffffffffffffffffffffffffffffffffffffff1673ffffffffffffffffffffffffffffffffffffffff163373ffffffffffffffffffffffffffffffffffffffff1614610f5957600080fd5b600381604051610f699190611f5d565b908152602001604051809103902060003373ffffffffffffffffffffffffffffffffffffffff1673ffffffffffffffffffffffffffffffffffffffff16815260200190815260200160002060009054906101000a900473ffffffffffffffffffffffffffffffffffffffff1673ffffffffffffffffffffffffffffffffffffffff163373ffffffffffffffffffffffffffffffffffffffff16141561100d57600080fd5b3360038260405161101e9190611f5d565b908152602001604051809103902060003373ffffffffffffffffffffffffffffffffffffffff1673ffffffffffffffffffffffffffffffffffffffff16815260200190815260200160002060006101000a81548173ffffffffffffffffffffffffffffffffffffffff021916908373ffffffffffffffffffffffffffffffffffffffff1602179055506110d960016004836040516110bc9190611f5d565b90815260200160405180910390205461192190919063ffffffff16565b6004826040516110e99190611f5d565b90815260200160405180910390208190555050565b6000600560008473ffffffffffffffffffffffffffffffffffffffff1673ffffffffffffffffffffffffffffffffffffffff16815260200190815260200160002060008373ffffffffffffffffffffffffffffffffffffffff1673ffffffffffffffffffffffffffffffffffffffff16815260200190815260200160002054905092915050565b6000803373ffffffffffffffffffffffffffffffffffffffff1673ffffffffffffffffffffffffffffffffffffffff16815260200190815260200160002060009054906101000a900473ffffffffffffffffffffffffffffffffffffffff1673ffffffffffffffffffffffffffffffffffffffff163373ffffffffffffffffffffffffffffffffffffffff1614611251576040517f08c379a000000000000000000000000000000000000000000000000000000000815260040161124890611f01565b60405180910390fd5b600073ffffffffffffffffffffffffffffffffffffffff168173ffffffffffffffffffffffffffffffffffffffff16141561128b57600080fd5b6005600260008373ffffffffffffffffffffffffffffffffffffffff1673ffffffffffffffffffffffffffffffffffffffff1681526020019081526020016000205410156112d857600080fd5b6000808273ffffffffffffffffffffffffffffffffffffffff1673ffffffffffffffffffffffffffffffffffffffff16815260200190815260200160002060009054906101000a900473ffffffffffffffffffffffffffffffffffffffff1673ffffffffffffffffffffffffffffffffffffffff168173ffffffffffffffffffffffffffffffffffffffff16141561136f57600080fd5b806000808373ffffffffffffffffffffffffffffffffffffffff1673ffffffffffffffffffffffffffffffffffffffff16815260200190815260200160002060006101000a81548173ffffffffffffffffffffffffffffffffffffffff021916908373ffffffffffffffffffffffffffffffffffffffff16021790555061141b6001806040516113fe90612052565b90815260200160405180910390205461192190919063ffffffff16565b600160405161142990612052565b90815260200160405180910390208190555050565b600033905090565b600073ffffffffffffffffffffffffffffffffffffffff168373ffffffffffffffffffffffffffffffffffffffff1614156114b6576040517f08c379a00000000000000000000000000000000000000000000000000000000081526004016114ad906120d9565b60405180910390fd5b600073ffffffffffffffffffffffffffffffffffffffff168273ffffffffffffffffffffffffffffffffffffffff161415611526576040517f08c379a000000000000000000000000000000000000000000000000000000000815260040161151d9061216b565b60405180910390fd5b80600560008573ffffffffffffffffffffffffffffffffffffffff1673ffffffffffffffffffffffffffffffffffffffff16815260200190815260200160002060008473ffffffffffffffffffffffffffffffffffffffff1673ffffffffffffffffffffffffffffffffffffffff168152602001908152602001600020819055508173ffffffffffffffffffffffffffffffffffffffff168373ffffffffffffffffffffffffffffffffffffffff167f8c5be1e5ebec7d5bd14f71427d1e84f3dd0314c0f7b2291e5b200ac8c7c3b925836040516116049190611b3f565b60405180910390a3505050565b600061161d84846110fe565b90507fffffffffffffffffffffffffffffffffffffffffffffffffffffffffffffffff81146116975781811015611689576040517f08c379a0000000000000000000000000000000000000000000000000000000008152600401611680906121d7565b60405180910390fd5b6116968484848403611446565b5b50505050565b600073ffffffffffffffffffffffffffffffffffffffff168373ffffffffffffffffffffffffffffffffffffffff16141561170d576040517f08c379a000000000000000000000000000000000000000000000000000000000815260040161170490612269565b60405180910390fd5b600073ffffffffffffffffffffffffffffffffffffffff168273ffffffffffffffffffffffffffffffffffffffff16141561177d576040517f08c379a0000000000000000000000000000000000000000000000000000000008152600401611774906122fb565b60405180910390fd5b61178883838361194d565b6000600260008573ffffffffffffffffffffffffffffffffffffffff1673ffffffffffffffffffffffffffffffffffffffff1681526020019081526020016000205490508181101561180f576040517f08c379a00000000000000000000000000000000000000000000000000000000081526004016118069061238d565b60405180910390fd5b818103600260008673ffffffffffffffffffffffffffffffffffffffff1673ffffffffffffffffffffffffffffffffffffffff1681526020019081526020016000208190555081600260008573ffffffffffffffffffffffffffffffffffffffff1673ffffffffffffffffffffffffffffffffffffffff16815260200190815260200160002060008282546118a49190611e5f565b925050819055508273ffffffffffffffffffffffffffffffffffffffff168473ffffffffffffffffffffffffffffffffffffffff167fddf252ad1be2c89b69c2b068fc378daa952ba7f163c4a11628f55a4df523b3ef846040516119089190611b3f565b60405180910390a361191b848484611952565b50505050565b60008082846119309190611e5f565b905083811015611943576119426123ad565b5b8091505092915050565b505050565b505050565b600081519050919050565b600082825260208201905092915050565b60005b83811015611991578082015181840152602081019050611976565b838111156119a0576000848401525b50505050565b6000601f19601f8301169050919050565b60006119c282611957565b6119cc8185611962565b93506119dc818560208601611973565b6119e5816119a6565b840191505092915050565b60006020820190508181036000830152611a0a81846119b7565b905092915050565b6000604051905090565b600080fd5b600080fd5b600073ffffffffffffffffffffffffffffffffffffffff82169050919050565b6000611a5182611a26565b9050919050565b611a6181611a46565b8114611a6c57600080fd5b50565b600081359050611a7e81611a58565b92915050565b6000819050919050565b611a9781611a84565b8114611aa257600080fd5b50565b600081359050611ab481611a8e565b92915050565b60008060408385031215611ad157611ad0611a1c565b5b6000611adf85828601611a6f565b9250506020611af085828601611aa5565b9150509250929050565b60008115159050919050565b611b0f81611afa565b82525050565b6000602082019050611b2a6000830184611b06565b92915050565b611b3981611a84565b82525050565b6000602082019050611b546000830184611b30565b92915050565b600080600060608486031215611b7357611b72611a1c565b5b6000611b8186828701611a6f565b9350506020611b9286828701611a6f565b9250506040611ba386828701611aa5565b9150509250925092565b600060208284031215611bc357611bc2611a1c565b5b6000611bd184828501611a6f565b91505092915050565b600060ff82169050919050565b611bf081611bda565b82525050565b6000602082019050611c0b6000830184611be7565b92915050565b600080fd5b600080fd5b7f4e487b7100000000000000000000000000000000000000000000000000000000600052604160045260246000fd5b611c53826119a6565b810181811067ffffffffffffffff82111715611c7257611c71611c1b565b5b80604052505050565b6000611c85611a12565b9050611c918282611c4a565b919050565b600067ffffffffffffffff821115611cb157611cb0611c1b565b5b611cba826119a6565b9050602081019050919050565b82818337600083830152505050565b6000611ce9611ce484611c96565b611c7b565b905082815260208101848484011115611d0557611d04611c16565b5b611d10848285611cc7565b509392505050565b600082601f830112611d2d57611d2c611c11565b5b8135611d3d848260208601611cd6565b91505092915050565b600060208284031215611d5c57611d5b611a1c565b5b600082013567ffffffffffffffff811115611d7a57611d79611a21565b5b611d8684828501611d18565b91505092915050565b60008060408385031215611da657611da5611a1c565b5b6000611db485828601611a6f565b9250506020611dc585828601611a6f565b9150509250929050565b7f4e487b7100000000000000000000000000000000000000000000000000000000600052602260045260246000fd5b60006002820490506001821680611e1657607f821691505b60208210811415611e2a57611e29611dcf565b5b50919050565b7f4e487b7100000000000000000000000000000000000000000000000000000000600052601160045260246000fd5b6000611e6a82611a84565b9150611e7583611a84565b9250827fffffffffffffffffffffffffffffffffffffffffffffffffffffffffffffffff03821115611eaa57611ea9611e30565b5b828201905092915050565b7f4f776e657248656c7065723a2063616c6c6572206973206e6f74206f776e6572600082015250565b6000611eeb602083611962565b9150611ef682611eb5565b602082019050919050565b60006020820190508181036000830152611f1a81611ede565b9050919050565b600081905092915050565b6000611f3782611957565b611f418185611f21565b9350611f51818560208601611973565b80840191505092915050565b6000611f698284611f2c565b915081905092915050565b7f45524332303a2064656372656173656420616c6c6f77616e63652062656c6f7760008201527f207a65726f000000000000000000000000000000000000000000000000000000602082015250565b6000611fd0602583611962565b9150611fdb82611f74565b604082019050919050565b60006020820190508181036000830152611fff81611fc3565b9050919050565b7f6f776e6572636e74000000000000000000000000000000000000000000000000600082015250565b600061203c600883611f21565b915061204782612006565b600882019050919050565b600061205d8261202f565b9150819050919050565b7f45524332303a20617070726f76652066726f6d20746865207a65726f2061646460008201527f7265737300000000000000000000000000000000000000000000000000000000602082015250565b60006120c3602483611962565b91506120ce82612067565b604082019050919050565b600060208201905081810360008301526120f2816120b6565b9050919050565b7f45524332303a20617070726f766520746f20746865207a65726f20616464726560008201527f7373000000000000000000000000000000000000000000000000000000000000602082015250565b6000612155602283611962565b9150612160826120f9565b604082019050919050565b6000602082019050818103600083015261218481612148565b9050919050565b7f45524332303a20696e73756666696369656e7420616c6c6f77616e6365000000600082015250565b60006121c1601d83611962565b91506121cc8261218b565b602082019050919050565b600060208201905081810360008301526121f0816121b4565b9050919050565b7f45524332303a207472616e736665722066726f6d20746865207a65726f20616460008201527f6472657373000000000000000000000000000000000000000000000000000000602082015250565b6000612253602583611962565b915061225e826121f7565b604082019050919050565b6000602082019050818103600083015261228281612246565b9050919050565b7f45524332303a207472616e7366657220746f20746865207a65726f206164647260008201527f6573730000000000000000000000000000000000000000000000000000000000602082015250565b60006122e5602383611962565b91506122f082612289565b604082019050919050565b60006020820190508181036000830152612314816122d8565b9050919050565b7f45524332303a207472616e7366657220616d6f756e742065786365656473206260008201527f616c616e63650000000000000000000000000000000000000000000000000000602082015250565b6000612377602683611962565b91506123828261231b565b604082019050919050565b600060208201905081810360008301526123a68161236a565b9050919050565b7f4e487b7100000000000000000000000000000000000000000000000000000000600052600160045260246000fdfea26469706673582212201926b56a141a21cbcbb1c180edcf4e7fbfadfbcaf6372b332419f19428b7384e64736f6c634300080a0033",
  "immutableReferences": {},
  "source": "\n// SPDX-License-Identifier: MIT\npragma solidity ^0.8.10;\n\ninterface InterERC20 {\n    function totalSupply() external view returns (uint256);\n    function balanceOf(address account) external view returns (uint256);\n    function transfer(address to, uint256 amount) external returns (bool);\n    function allowance(address owner, address spender) external view returns (uint256);\n    function approve(address spender, uint256 amount) external returns (bool);\n    function transferFrom(address from, address to, uint256 amount) external returns (bool);\n    function name() external view returns (string memory);\n    function symbol() external view returns (string memory);\n    function decimals() external view returns (uint8);\n\n    event Transfer(address indexed from, address indexed to, uint256 value);\n    event Approval(address indexed owner, address indexed spender, uint256 value);\n}\n\nabstract contract Context {\n    function _msgSender() internal view virtual returns (address) {\n        return msg.sender;\n    }\n    function _msgData() internal view virtual returns (bytes calldata) {\n        return msg.data;\n    }\n}\nlibrary SafeMath {\n  \tfunction mul(uint256 a, uint256 b) internal pure returns (uint256) {\n\t\tuint256 c = a * b;\n\t\tassert(a == 0 || c / a == b);\n\t\treturn c;\n  \t}\n\n  \tfunction div(uint256 a, uint256 b) internal pure returns (uint256) {\n\t    uint256 c = a / b;\n\t\treturn c;\n  \t}\n\n  \tfunction sub(uint256 a, uint256 b) internal pure returns (uint256) {\n\t\tassert(b <= a);\n\t\treturn a - b;\n  \t}\n\n  \tfunction add(uint256 a, uint256 b) internal pure returns (uint256) {\n\t\tuint256 c = a + b;\n\t\tassert(c >= a);\n\t\treturn c;\n\t}\n}\n\nabstract contract OwnerHelper {\n    using SafeMath for uint;\n\n    // [Try] owner private  .\n    mapping (address => address) internal _owner;\n    mapping (string => uint) internal _ownercnt; \n    mapping(address => uint256) internal _balances;\n    // agenda id( 0)\n    // agenda voter id  0  0\n    // agenda voter id's address \n    mapping (string => mapping(address => address)) internal _agenda;\n    mapping (string => uint256) internal _voters;\n\n    // address[2] private _owner;\n\n  \tevent OwnershipTransferred(address indexed preOwner, address indexed nextOwner);\n\n  \tmodifier onlyOwner {\n\t\trequire(msg.sender == _owner[msg.sender], \"OwnerHelper: caller is not owner\");\n\t\t_;\n  \t}\n  \tconstructor() {\n            _owner[msg.sender] = msg.sender;\n            _ownercnt[\"ownercnt\"] = 1;\n  \t}\n\n    //    function owner() public view virtual returns (address) {\n    //        return _owner;\n    //    }\n\n  \tfunction transferOwnership(address preOwner, address newOwner) onlyOwner public {\n            require(newOwner != _owner[newOwner]);\n            require(preOwner == _owner[preOwner]);\n            require(newOwner != address(0x0));\n            // PreOwner - newOwner - \n    \t    // preOwner  ->   -   0 .\n            delete _owner[preOwner];\n            _owner[newOwner] = newOwner;\n    \t    emit OwnershipTransferred(preOwner, newOwner);\n  \t}\n         //    \n    function giveOwnership(address newOwner) onlyOwner public{\n        // _owner   (newOwner )\n        //   \n        //    \n    require(newOwner != address(0x0));\n    require(_balances[newOwner] >= 5);\n    require(newOwner != _owner[newOwner]);\n    // _newOwner  3 -  ?? -> map      \n    _owner[newOwner] = newOwner;\n    _ownercnt[\"ownercnt\"] = _ownercnt[\"ownercnt\"].add(1); //SafeMath.add \n    }\n}\n\ncontract CoCoToken is Context, InterERC20, OwnerHelper {\n    using SafeMath for uint256;\n    mapping(address => mapping(address => uint256)) private _allowances;\n\n    uint256 private _totalSupply;\n    string private _name;\n    string private _symbol;\n    uint8 public _decimals;\n\n    constructor() {\n        _name = \"CoCo Farm Token\";\n        _symbol = \"CoCo\";\n        _decimals = 6;\n        _totalSupply = 100000000 * (10 ** _decimals);\n        _balances[msg.sender] = _totalSupply; \n    }\n\n\n    //   \n    function listenMyopinion (string memory agenda) onlyOwner public{\n        require(msg.sender == _owner[msg.sender]);  //   \n        // Agenda a = Agenda(agenda,voters[msg.sender] = msg.sender);\n        _agenda[agenda][msg.sender] = msg.sender;\n        // _agenda[agenda][\"voters\"] =1;\n        _voters[agenda] = 1;\n\n    }\n\n    function voteYouropinion (string memory agenda) onlyOwner public{\n        require(msg.sender == _owner[msg.sender]);  //   \n        require(msg.sender != _agenda[agenda][msg.sender]); //   \n        _agenda[agenda][msg.sender] = msg.sender;\n        _voters[agenda] = _voters[agenda].add(1);\n    }\n\n    function voteCheck (string memory agenda) public view returns (bool result){ //view : storage   , pure : starage   ( )\n        \n        if(_voters[agenda] == _ownercnt[\"ownercnt\"]){\n            result = true;\n        }\n        else{\n            result = false;\n        }\n    }\n\n    function name() public view virtual override returns (string memory) {\n        return _name;\n    }\n\n    function symbol() public view virtual override returns (string memory) {\n        return _symbol;\n    }\n\n    function decimals() public view virtual override returns (uint8) {\n        return 6;\n    }\n\n    function totalSupply() public view virtual override returns (uint256) {\n        return _totalSupply;\n    }\n\n    function balanceOf(address account) public view virtual override returns (uint256) {\n        return _balances[account];\n    }\n\n    function isOwner(address account) public view returns (bool) {\n        require(account == _owner[account]);\n        return true;\n    }\n\n    function transfer(address to, uint256 amount) public virtual override returns (bool) {\n        address owner = _msgSender();\n        _transfer(owner, to, amount);\n        return true;\n    }\n\n    function allowance(address owner, address spender) public view virtual override returns (uint256) {\n        return _allowances[owner][spender];\n    }\n\n    function approve(address spender, uint256 amount) public virtual override returns (bool) {\n        address owner = _msgSender();\n        _approve(owner, spender, amount);\n        return true;\n    }\n\n    function transferFrom(address from, address to, uint256 amount) public virtual override returns (bool) {\n        address spender = _msgSender();\n        _spendAllowance(from, spender, amount);\n        _transfer(from, to, amount);\n        return true;\n    }\n\n    function increaseAllowance(address spender, uint256 addedValue) public virtual returns (bool) {\n        address owner = _msgSender();\n        _approve(owner, spender, _allowances[owner][spender] + addedValue);\n        return true;\n    }\n\n    function decreaseAllowance(address spender, uint256 subtractedValue) public virtual returns (bool) {\n        address owner = _msgSender();\n        uint256 currentAllowance = _allowances[owner][spender];\n        require(currentAllowance >= subtractedValue, \"ERC20: decreased allowance below zero\");\n        unchecked {_approve(owner, spender, currentAllowance - subtractedValue);}\n        return true;\n    }\n\n    function _transfer(address from, address to, uint256 amount) internal virtual {\n        require(from != address(0), \"ERC20: transfer from the zero address\");\n        require(to != address(0), \"ERC20: transfer to the zero address\");\n        _beforeTokenTransfer(from, to, amount);\n        uint256 fromBalance = _balances[from];\n        require(fromBalance >= amount, \"ERC20: transfer amount exceeds balance\");\n        unchecked {_balances[from] = fromBalance - amount;}\n        _balances[to] += amount;\n        emit Transfer(from, to, amount);\n        _afterTokenTransfer(from, to, amount);\n    }\n\n    function _mint(address account, uint256 amount) internal virtual {\n        require(account != address(0), \"ERC20: mint to the zero address\");\n        _beforeTokenTransfer(address(0), account, amount);\n        _totalSupply += amount;\n        _balances[account] += amount;\n        emit Transfer(address(0), account, amount);\n        _afterTokenTransfer(address(0), account, amount);\n    }\n\n    function _burn(address account, uint256 amount) internal virtual {\n        require(account != address(0), \"ERC20: burn from the zero address\");\n        _beforeTokenTransfer(account, address(0), amount);\n        uint256 accountBalance = _balances[account];\n        require(accountBalance >= amount, \"ERC20: burn amount exceeds balance\");\n        unchecked {_balances[account] = accountBalance - amount;}\n        _totalSupply -= amount;\n        emit Transfer(account, address(0), amount);\n        _afterTokenTransfer(account, address(0), amount);\n    }\n\n    function _approve(address owner, address spender, uint256 amount) internal virtual {\n        require(owner != address(0), \"ERC20: approve from the zero address\");\n        require(spender != address(0), \"ERC20: approve to the zero address\");\n        _allowances[owner][spender] = amount;\n        emit Approval(owner, spender, amount);\n    }\n\n    function _spendAllowance(address owner, address spender, uint256 amount) internal virtual {\n        uint256 currentAllowance = allowance(owner, spender);\n        if (currentAllowance != type(uint256).max) {\n            require(currentAllowance >= amount, \"ERC20: insufficient allowance\");\n            unchecked {_approve(owner, spender, currentAllowance - amount);}\n        }\n    }\n\n    function _beforeTokenTransfer(address from, address to, uint256 amount) internal virtual {}\n\n    function _afterTokenTransfer(address from, address to, uint256 amount) internal virtual {}\n}",
  "sourcePath": "/Users/daeyeolkim/eunsu/codestates/beb-03-second-05-CoCoFarm/contract/contracts/CoCoToken.sol",
  "compiler": {
    "name": "solc",
    "version": "0.8.10+commit.fc410830.Emscripten.clang"
  },
  "schemaVersion": "3.4.7",
  "updatedAt": "2022-05-02T07:45:37.453Z",
  "networkType": "ethereum",
  "devdoc": {
    "kind": "dev",
    "methods": {},
    "version": 1
  },
  "userdoc": {
    "kind": "user",
    "methods": {},
    "version": 1
  }
}