{
  "contractName": "CoCoToken",
  "abi": [
    {
      "inputs": [],
      "stateMutability": "nonpayable",
      "type": "constructor"
    },
    {
      "anonymous": false,
      "inputs": [
        {
          "indexed": true,
          "internalType": "address",
          "name": "owner",
          "type": "address"
        },
        {
          "indexed": true,
          "internalType": "address",
          "name": "spender",
          "type": "address"
        },
        {
          "indexed": false,
          "internalType": "uint256",
          "name": "value",
          "type": "uint256"
        }
      ],
      "name": "Approval",
      "type": "event"
    },
    {
      "anonymous": false,
      "inputs": [
        {
          "indexed": true,
          "internalType": "address",
          "name": "preOwner",
          "type": "address"
        },
        {
          "indexed": true,
          "internalType": "address",
          "name": "nextOwner",
          "type": "address"
        }
      ],
      "name": "OwnershipTransferred",
      "type": "event"
    },
    {
      "anonymous": false,
      "inputs": [
        {
          "indexed": true,
          "internalType": "address",
          "name": "from",
          "type": "address"
        },
        {
          "indexed": true,
          "internalType": "address",
          "name": "to",
          "type": "address"
        },
        {
          "indexed": false,
          "internalType": "uint256",
          "name": "value",
          "type": "uint256"
        }
      ],
      "name": "Transfer",
      "type": "event"
    },
    {
      "inputs": [],
      "name": "_decimals",
      "outputs": [
        {
          "internalType": "uint8",
          "name": "",
          "type": "uint8"
        }
      ],
      "stateMutability": "view",
      "type": "function",
      "constant": true
    },
    {
      "inputs": [],
      "name": "owner",
      "outputs": [
        {
          "internalType": "address",
          "name": "",
          "type": "address"
        }
      ],
      "stateMutability": "view",
      "type": "function",
      "constant": true
    },
    {
      "inputs": [
        {
          "internalType": "address",
          "name": "newOwner",
          "type": "address"
        }
      ],
      "name": "transferOwnership",
      "outputs": [],
      "stateMutability": "nonpayable",
      "type": "function"
    },
    {
      "inputs": [],
      "name": "name",
      "outputs": [
        {
          "internalType": "string",
          "name": "",
          "type": "string"
        }
      ],
      "stateMutability": "view",
      "type": "function",
      "constant": true
    },
    {
      "inputs": [],
      "name": "symbol",
      "outputs": [
        {
          "internalType": "string",
          "name": "",
          "type": "string"
        }
      ],
      "stateMutability": "view",
      "type": "function",
      "constant": true
    },
    {
      "inputs": [],
      "name": "decimals",
      "outputs": [
        {
          "internalType": "uint8",
          "name": "",
          "type": "uint8"
        }
      ],
      "stateMutability": "view",
      "type": "function",
      "constant": true
    },
    {
      "inputs": [],
      "name": "totalSupply",
      "outputs": [
        {
          "internalType": "uint256",
          "name": "",
          "type": "uint256"
        }
      ],
      "stateMutability": "view",
      "type": "function",
      "constant": true
    },
    {
      "inputs": [
        {
          "internalType": "address",
          "name": "account",
          "type": "address"
        }
      ],
      "name": "balanceOf",
      "outputs": [
        {
          "internalType": "uint256",
          "name": "",
          "type": "uint256"
        }
      ],
      "stateMutability": "view",
      "type": "function",
      "constant": true
    },
    {
      "inputs": [
        {
          "internalType": "address",
          "name": "to",
          "type": "address"
        },
        {
          "internalType": "uint256",
          "name": "amount",
          "type": "uint256"
        }
      ],
      "name": "transfer",
      "outputs": [
        {
          "internalType": "bool",
          "name": "",
          "type": "bool"
        }
      ],
      "stateMutability": "nonpayable",
      "type": "function"
    },
    {
      "inputs": [
        {
          "internalType": "address",
          "name": "owner",
          "type": "address"
        },
        {
          "internalType": "address",
          "name": "spender",
          "type": "address"
        }
      ],
      "name": "allowance",
      "outputs": [
        {
          "internalType": "uint256",
          "name": "",
          "type": "uint256"
        }
      ],
      "stateMutability": "view",
      "type": "function",
      "constant": true
    },
    {
      "inputs": [
        {
          "internalType": "address",
          "name": "spender",
          "type": "address"
        },
        {
          "internalType": "uint256",
          "name": "amount",
          "type": "uint256"
        }
      ],
      "name": "approve",
      "outputs": [
        {
          "internalType": "bool",
          "name": "",
          "type": "bool"
        }
      ],
      "stateMutability": "nonpayable",
      "type": "function"
    },
    {
      "inputs": [
        {
          "internalType": "address",
          "name": "from",
          "type": "address"
        },
        {
          "internalType": "address",
          "name": "to",
          "type": "address"
        },
        {
          "internalType": "uint256",
          "name": "amount",
          "type": "uint256"
        }
      ],
      "name": "transferFrom",
      "outputs": [
        {
          "internalType": "bool",
          "name": "",
          "type": "bool"
        }
      ],
      "stateMutability": "nonpayable",
      "type": "function"
    },
    {
      "inputs": [
        {
          "internalType": "address",
          "name": "spender",
          "type": "address"
        },
        {
          "internalType": "uint256",
          "name": "addedValue",
          "type": "uint256"
        }
      ],
      "name": "increaseAllowance",
      "outputs": [
        {
          "internalType": "bool",
          "name": "",
          "type": "bool"
        }
      ],
      "stateMutability": "nonpayable",
      "type": "function"
    },
    {
      "inputs": [
        {
          "internalType": "address",
          "name": "spender",
          "type": "address"
        },
        {
          "internalType": "uint256",
          "name": "subtractedValue",
          "type": "uint256"
        }
      ],
      "name": "decreaseAllowance",
      "outputs": [
        {
          "internalType": "bool",
          "name": "",
          "type": "bool"
        }
      ],
      "stateMutability": "nonpayable",
      "type": "function"
    }
  ],
  "bytecode": "0x60806040523480156200001157600080fd5b50336000806101000a81548173ffffffffffffffffffffffffffffffffffffffff021916908373ffffffffffffffffffffffffffffffffffffffff1602179055506040518060400160405280600f81526020017f436f436f204661726d20546f6b656e0000000000000000000000000000000000815250600490805190602001906200009f92919062000189565b506040518060400160405280600481526020017f436f436f0000000000000000000000000000000000000000000000000000000081525060059080519060200190620000ed92919062000189565b506012600660006101000a81548160ff021916908360ff160217905550600660009054906101000a900460ff16600a1860ff166305f5e10062000131919062000278565b63ffffffff16600381905550600354600160003373ffffffffffffffffffffffffffffffffffffffff1673ffffffffffffffffffffffffffffffffffffffff1681526020019081526020016000208190555062000322565b8280546200019790620002ec565b90600052602060002090601f016020900481019282620001bb576000855562000207565b82601f10620001d657805160ff191683800117855562000207565b8280016001018555821562000207579182015b8281111562000206578251825591602001919060010190620001e9565b5b5090506200021691906200021a565b5090565b5b80821115620002355760008160009055506001016200021b565b5090565b600063ffffffff82169050919050565b7f4e487b7100000000000000000000000000000000000000000000000000000000600052601160045260246000fd5b6000620002858262000239565b9150620002928362000239565b92508163ffffffff0483118215151615620002b257620002b162000249565b5b828202905092915050565b7f4e487b7100000000000000000000000000000000000000000000000000000000600052602260045260246000fd5b600060028204905060018216806200030557607f821691505b602082108114156200031c576200031b620002bd565b5b50919050565b61169b80620003326000396000f3fe608060405234801561001057600080fd5b50600436106100ea5760003560e01c806370a082311161008c578063a457c2d711610066578063a457c2d714610263578063a9059cbb14610293578063dd62ed3e146102c3578063f2fde38b146102f3576100ea565b806370a08231146101f75780638da5cb5b1461022757806395d89b4114610245576100ea565b806323b872dd116100c857806323b872dd1461015b578063313ce5671461018b57806332424aa3146101a957806339509351146101c7576100ea565b806306fdde03146100ef578063095ea7b31461010d57806318160ddd1461013d575b600080fd5b6100f761030f565b6040516101049190610ebf565b60405180910390f35b61012760048036038101906101229190610f7a565b6103a1565b6040516101349190610fd5565b60405180910390f35b6101456103c4565b6040516101529190610fff565b60405180910390f35b6101756004803603810190610170919061101a565b6103ce565b6040516101829190610fd5565b60405180910390f35b6101936103fd565b6040516101a09190611089565b60405180910390f35b6101b1610406565b6040516101be9190611089565b60405180910390f35b6101e160048036038101906101dc9190610f7a565b610419565b6040516101ee9190610fd5565b60405180910390f35b610211600480360381019061020c91906110a4565b6104c3565b60405161021e9190610fff565b60405180910390f35b61022f61050c565b60405161023c91906110e0565b60405180910390f35b61024d610535565b60405161025a9190610ebf565b60405180910390f35b61027d60048036038101906102789190610f7a565b6105c7565b60405161028a9190610fd5565b60405180910390f35b6102ad60048036038101906102a89190610f7a565b6106b1565b6040516102ba9190610fd5565b60405180910390f35b6102dd60048036038101906102d891906110fb565b6106d4565b6040516102ea9190610fff565b60405180910390f35b61030d600480360381019061030891906110a4565b61075b565b005b60606004805461031e9061116a565b80601f016020809104026020016040519081016040528092919081815260200182805461034a9061116a565b80156103975780601f1061036c57610100808354040283529160200191610397565b820191906000526020600020905b81548152906001019060200180831161037a57829003601f168201915b5050505050905090565b6000806103ac610939565b90506103b9818585610941565b600191505092915050565b6000600354905090565b6000806103d9610939565b90506103e6858285610b0c565b6103f1858585610b98565b60019150509392505050565b60006012905090565b600660009054906101000a900460ff1681565b600080610424610939565b90506104b8818585600260008673ffffffffffffffffffffffffffffffffffffffff1673ffffffffffffffffffffffffffffffffffffffff16815260200190815260200160002060008973ffffffffffffffffffffffffffffffffffffffff1673ffffffffffffffffffffffffffffffffffffffff168152602001908152602001600020546104b391906111cb565b610941565b600191505092915050565b6000600160008373ffffffffffffffffffffffffffffffffffffffff1673ffffffffffffffffffffffffffffffffffffffff168152602001908152602001600020549050919050565b60008060009054906101000a900473ffffffffffffffffffffffffffffffffffffffff16905090565b6060600580546105449061116a565b80601f01602080910402602001604051908101604052809291908181526020018280546105709061116a565b80156105bd5780601f10610592576101008083540402835291602001916105bd565b820191906000526020600020905b8154815290600101906020018083116105a057829003601f168201915b5050505050905090565b6000806105d2610939565b90506000600260008373ffffffffffffffffffffffffffffffffffffffff1673ffffffffffffffffffffffffffffffffffffffff16815260200190815260200160002060008673ffffffffffffffffffffffffffffffffffffffff1673ffffffffffffffffffffffffffffffffffffffff16815260200190815260200160002054905083811015610698576040517f08c379a000000000000000000000000000000000000000000000000000000000815260040161068f90611293565b60405180910390fd5b6106a58286868403610941565b60019250505092915050565b6000806106bc610939565b90506106c9818585610b98565b600191505092915050565b6000600260008473ffffffffffffffffffffffffffffffffffffffff1673ffffffffffffffffffffffffffffffffffffffff16815260200190815260200160002060008373ffffffffffffffffffffffffffffffffffffffff1673ffffffffffffffffffffffffffffffffffffffff16815260200190815260200160002054905092915050565b60008054906101000a900473ffffffffffffffffffffffffffffffffffffffff1673ffffffffffffffffffffffffffffffffffffffff163373ffffffffffffffffffffffffffffffffffffffff16146107e9576040517f08c379a00000000000000000000000000000000000000000000000000000000081526004016107e0906112ff565b60405180910390fd5b60008054906101000a900473ffffffffffffffffffffffffffffffffffffffff1673ffffffffffffffffffffffffffffffffffffffff168173ffffffffffffffffffffffffffffffffffffffff16141561084257600080fd5b600073ffffffffffffffffffffffffffffffffffffffff168173ffffffffffffffffffffffffffffffffffffffff16141561087c57600080fd5b806000806101000a81548173ffffffffffffffffffffffffffffffffffffffff021916908373ffffffffffffffffffffffffffffffffffffffff1602179055508073ffffffffffffffffffffffffffffffffffffffff1660008054906101000a900473ffffffffffffffffffffffffffffffffffffffff1673ffffffffffffffffffffffffffffffffffffffff167f8be0079c531659141344cd1fd0a4f28419497f9722a3daafe3b4186f6b6457e060405160405180910390a350565b600033905090565b600073ffffffffffffffffffffffffffffffffffffffff168373ffffffffffffffffffffffffffffffffffffffff1614156109b1576040517f08c379a00000000000000000000000000000000000000000000000000000000081526004016109a890611391565b60405180910390fd5b600073ffffffffffffffffffffffffffffffffffffffff168273ffffffffffffffffffffffffffffffffffffffff161415610a21576040517f08c379a0000000000000000000000000000000000000000000000000000000008152600401610a1890611423565b60405180910390fd5b80600260008573ffffffffffffffffffffffffffffffffffffffff1673ffffffffffffffffffffffffffffffffffffffff16815260200190815260200160002060008473ffffffffffffffffffffffffffffffffffffffff1673ffffffffffffffffffffffffffffffffffffffff168152602001908152602001600020819055508173ffffffffffffffffffffffffffffffffffffffff168373ffffffffffffffffffffffffffffffffffffffff167f8c5be1e5ebec7d5bd14f71427d1e84f3dd0314c0f7b2291e5b200ac8c7c3b92583604051610aff9190610fff565b60405180910390a3505050565b6000610b1884846106d4565b90507fffffffffffffffffffffffffffffffffffffffffffffffffffffffffffffffff8114610b925781811015610b84576040517f08c379a0000000000000000000000000000000000000000000000000000000008152600401610b7b9061148f565b60405180910390fd5b610b918484848403610941565b5b50505050565b600073ffffffffffffffffffffffffffffffffffffffff168373ffffffffffffffffffffffffffffffffffffffff161415610c08576040517f08c379a0000000000000000000000000000000000000000000000000000000008152600401610bff90611521565b60405180910390fd5b600073ffffffffffffffffffffffffffffffffffffffff168273ffffffffffffffffffffffffffffffffffffffff161415610c78576040517f08c379a0000000000000000000000000000000000000000000000000000000008152600401610c6f906115b3565b60405180910390fd5b610c83838383610e1c565b6000600160008573ffffffffffffffffffffffffffffffffffffffff1673ffffffffffffffffffffffffffffffffffffffff16815260200190815260200160002054905081811015610d0a576040517f08c379a0000000000000000000000000000000000000000000000000000000008152600401610d0190611645565b60405180910390fd5b818103600160008673ffffffffffffffffffffffffffffffffffffffff1673ffffffffffffffffffffffffffffffffffffffff1681526020019081526020016000208190555081600160008573ffffffffffffffffffffffffffffffffffffffff1673ffffffffffffffffffffffffffffffffffffffff1681526020019081526020016000206000828254610d9f91906111cb565b925050819055508273ffffffffffffffffffffffffffffffffffffffff168473ffffffffffffffffffffffffffffffffffffffff167fddf252ad1be2c89b69c2b068fc378daa952ba7f163c4a11628f55a4df523b3ef84604051610e039190610fff565b60405180910390a3610e16848484610e21565b50505050565b505050565b505050565b600081519050919050565b600082825260208201905092915050565b60005b83811015610e60578082015181840152602081019050610e45565b83811115610e6f576000848401525b50505050565b6000601f19601f8301169050919050565b6000610e9182610e26565b610e9b8185610e31565b9350610eab818560208601610e42565b610eb481610e75565b840191505092915050565b60006020820190508181036000830152610ed98184610e86565b905092915050565b600080fd5b600073ffffffffffffffffffffffffffffffffffffffff82169050919050565b6000610f1182610ee6565b9050919050565b610f2181610f06565b8114610f2c57600080fd5b50565b600081359050610f3e81610f18565b92915050565b6000819050919050565b610f5781610f44565b8114610f6257600080fd5b50565b600081359050610f7481610f4e565b92915050565b60008060408385031215610f9157610f90610ee1565b5b6000610f9f85828601610f2f565b9250506020610fb085828601610f65565b9150509250929050565b60008115159050919050565b610fcf81610fba565b82525050565b6000602082019050610fea6000830184610fc6565b92915050565b610ff981610f44565b82525050565b60006020820190506110146000830184610ff0565b92915050565b60008060006060848603121561103357611032610ee1565b5b600061104186828701610f2f565b935050602061105286828701610f2f565b925050604061106386828701610f65565b9150509250925092565b600060ff82169050919050565b6110838161106d565b82525050565b600060208201905061109e600083018461107a565b92915050565b6000602082840312156110ba576110b9610ee1565b5b60006110c884828501610f2f565b91505092915050565b6110da81610f06565b82525050565b60006020820190506110f560008301846110d1565b92915050565b6000806040838503121561111257611111610ee1565b5b600061112085828601610f2f565b925050602061113185828601610f2f565b9150509250929050565b7f4e487b7100000000000000000000000000000000000000000000000000000000600052602260045260246000fd5b6000600282049050600182168061118257607f821691505b602082108114156111965761119561113b565b5b50919050565b7f4e487b7100000000000000000000000000000000000000000000000000000000600052601160045260246000fd5b60006111d682610f44565b91506111e183610f44565b9250827fffffffffffffffffffffffffffffffffffffffffffffffffffffffffffffffff038211156112165761121561119c565b5b828201905092915050565b7f45524332303a2064656372656173656420616c6c6f77616e63652062656c6f7760008201527f207a65726f000000000000000000000000000000000000000000000000000000602082015250565b600061127d602583610e31565b915061128882611221565b604082019050919050565b600060208201905081810360008301526112ac81611270565b9050919050565b7f4f776e657248656c7065723a2063616c6c6572206973206e6f74206f776e6572600082015250565b60006112e9602083610e31565b91506112f4826112b3565b602082019050919050565b60006020820190508181036000830152611318816112dc565b9050919050565b7f45524332303a20617070726f76652066726f6d20746865207a65726f2061646460008201527f7265737300000000000000000000000000000000000000000000000000000000602082015250565b600061137b602483610e31565b91506113868261131f565b604082019050919050565b600060208201905081810360008301526113aa8161136e565b9050919050565b7f45524332303a20617070726f766520746f20746865207a65726f20616464726560008201527f7373000000000000000000000000000000000000000000000000000000000000602082015250565b600061140d602283610e31565b9150611418826113b1565b604082019050919050565b6000602082019050818103600083015261143c81611400565b9050919050565b7f45524332303a20696e73756666696369656e7420616c6c6f77616e6365000000600082015250565b6000611479601d83610e31565b915061148482611443565b602082019050919050565b600060208201905081810360008301526114a88161146c565b9050919050565b7f45524332303a207472616e736665722066726f6d20746865207a65726f20616460008201527f6472657373000000000000000000000000000000000000000000000000000000602082015250565b600061150b602583610e31565b9150611516826114af565b604082019050919050565b6000602082019050818103600083015261153a816114fe565b9050919050565b7f45524332303a207472616e7366657220746f20746865207a65726f206164647260008201527f6573730000000000000000000000000000000000000000000000000000000000602082015250565b600061159d602383610e31565b91506115a882611541565b604082019050919050565b600060208201905081810360008301526115cc81611590565b9050919050565b7f45524332303a207472616e7366657220616d6f756e742065786365656473206260008201527f616c616e63650000000000000000000000000000000000000000000000000000602082015250565b600061162f602683610e31565b915061163a826115d3565b604082019050919050565b6000602082019050818103600083015261165e81611622565b905091905056fea2646970667358221220dc5dd0bafbf0da9a51542fe27efd00d01bbc8990ffccde19a288357fd99f4d0e64736f6c634300080a0033",
  "immutableReferences": {},
  "source": "// SPDX-License-Identifier: MIT\npragma solidity ^0.8.10;\n\ninterface InterERC20 {\n    function totalSupply() external view returns (uint256);\n    function balanceOf(address account) external view returns (uint256);\n    function transfer(address to, uint256 amount) external returns (bool);\n    function allowance(address owner, address spender) external view returns (uint256);\n    function approve(address spender, uint256 amount) external returns (bool);\n    function transferFrom(address from, address to, uint256 amount) external returns (bool);\n    function name() external view returns (string memory);\n    function symbol() external view returns (string memory);\n    function decimals() external view returns (uint8);\n\n    event Transfer(address indexed from, address indexed to, uint256 value);\n    event Approval(address indexed owner, address indexed spender, uint256 value);\n}\n\nabstract contract Context {\n    function _msgSender() internal view virtual returns (address) {\n        return msg.sender;\n    }\n    function _msgData() internal view virtual returns (bytes calldata) {\n        return msg.data;\n    }\n}\n\nabstract contract OwnerHelper {\n  \taddress private _owner;\n\n  \tevent OwnershipTransferred(address indexed preOwner, address indexed nextOwner);\n\n  \tmodifier onlyOwner {\n\t\trequire(msg.sender == _owner, \"OwnerHelper: caller is not owner\");\n\t\t_;\n  \t}\n\n  \tconstructor() {\n\t\t_owner = msg.sender;\n  \t}\n\n  \tfunction owner() public view virtual returns (address) {\n\t\treturn _owner;\n  \t}\n\n  \tfunction transferOwnership(address newOwner) onlyOwner public {\n\t\trequire(newOwner != _owner);\n\t\trequire(newOwner != address(0x0));\n\t\t_owner = newOwner;\n\t\temit OwnershipTransferred(_owner, newOwner);\n  \t}\n}\n\ncontract CoCoToken is Context, InterERC20, OwnerHelper {\n    mapping(address => uint256) private _balances;\n    mapping(address => mapping(address => uint256)) private _allowances;\n\n    uint256 private _totalSupply;\n    string private _name;\n    string private _symbol;\n    uint8 public _decimals;\n\n    constructor() {\n        _name = \"CoCo Farm Token\";\n        _symbol = \"CoCo\";\n        _decimals = 18;\n        _totalSupply = 100000000 * (10 ^ _decimals);\n        _balances[msg.sender] = _totalSupply;\n    }\n\n    function name() public view virtual override returns (string memory) {\n        return _name;\n    }\n\n    function symbol() public view virtual override returns (string memory) {\n        return _symbol;\n    }\n\n    function decimals() public view virtual override returns (uint8) {\n        return 18;\n    }\n\n    function totalSupply() public view virtual override returns (uint256) {\n        return _totalSupply;\n    }\n\n    function balanceOf(address account) public view virtual override returns (uint256) {\n        return _balances[account];\n    }\n\n    function transfer(address to, uint256 amount) public virtual override returns (bool) {\n        address owner = _msgSender();\n        _transfer(owner, to, amount);\n        return true;\n    }\n\n    function allowance(address owner, address spender) public view virtual override returns (uint256) {\n        return _allowances[owner][spender];\n    }\n\n    function approve(address spender, uint256 amount) public virtual override returns (bool) {\n        address owner = _msgSender();\n        _approve(owner, spender, amount);\n        return true;\n    }\n\n    function transferFrom(address from, address to, uint256 amount) public virtual override returns (bool) {\n        address spender = _msgSender();\n        _spendAllowance(from, spender, amount);\n        _transfer(from, to, amount);\n        return true;\n    }\n\n    function increaseAllowance(address spender, uint256 addedValue) public virtual returns (bool) {\n        address owner = _msgSender();\n        _approve(owner, spender, _allowances[owner][spender] + addedValue);\n        return true;\n    }\n\n    function decreaseAllowance(address spender, uint256 subtractedValue) public virtual returns (bool) {\n        address owner = _msgSender();\n        uint256 currentAllowance = _allowances[owner][spender];\n        require(currentAllowance >= subtractedValue, \"ERC20: decreased allowance below zero\");\n        unchecked {_approve(owner, spender, currentAllowance - subtractedValue);}\n        return true;\n    }\n\n    function _transfer(address from, address to, uint256 amount) internal virtual {\n        require(from != address(0), \"ERC20: transfer from the zero address\");\n        require(to != address(0), \"ERC20: transfer to the zero address\");\n        _beforeTokenTransfer(from, to, amount);\n        uint256 fromBalance = _balances[from];\n        require(fromBalance >= amount, \"ERC20: transfer amount exceeds balance\");\n        unchecked {_balances[from] = fromBalance - amount;}\n        _balances[to] += amount;\n        emit Transfer(from, to, amount);\n        _afterTokenTransfer(from, to, amount);\n    }\n\n    function _mint(address account, uint256 amount) internal virtual {\n        require(account != address(0), \"ERC20: mint to the zero address\");\n        _beforeTokenTransfer(address(0), account, amount);\n        _totalSupply += amount;\n        _balances[account] += amount;\n        emit Transfer(address(0), account, amount);\n        _afterTokenTransfer(address(0), account, amount);\n    }\n\n    function _burn(address account, uint256 amount) internal virtual {\n        require(account != address(0), \"ERC20: burn from the zero address\");\n        _beforeTokenTransfer(account, address(0), amount);\n        uint256 accountBalance = _balances[account];\n        require(accountBalance >= amount, \"ERC20: burn amount exceeds balance\");\n        unchecked {_balances[account] = accountBalance - amount;}\n        _totalSupply -= amount;\n        emit Transfer(account, address(0), amount);\n        _afterTokenTransfer(account, address(0), amount);\n    }\n\n    function _approve(address owner, address spender, uint256 amount) internal virtual {\n        require(owner != address(0), \"ERC20: approve from the zero address\");\n        require(spender != address(0), \"ERC20: approve to the zero address\");\n        _allowances[owner][spender] = amount;\n        emit Approval(owner, spender, amount);\n    }\n\n    function _spendAllowance(address owner, address spender, uint256 amount) internal virtual {\n        uint256 currentAllowance = allowance(owner, spender);\n        if (currentAllowance != type(uint256).max) {\n            require(currentAllowance >= amount, \"ERC20: insufficient allowance\");\n            unchecked {_approve(owner, spender, currentAllowance - amount);}\n        }\n    }\n\n    function _beforeTokenTransfer(address from, address to, uint256 amount) internal virtual {}\n\n    function _afterTokenTransfer(address from, address to, uint256 amount) internal virtual {}\n}\n",
  "sourcePath": "/Users/daeyeolkim/eunsu/codestates/beb-03-second-05-CoCoFarm/contract/contracts/CoCoToken.sol",
  "compiler": {
    "name": "solc",
    "version": "0.8.10+commit.fc410830.Emscripten.clang"
  },
  "schemaVersion": "3.4.7",
  "updatedAt": "2022-04-25T14:11:46.738Z",
  "networkType": "ethereum",
  "devdoc": {
    "kind": "dev",
    "methods": {},
    "version": 1
  },
  "userdoc": {
    "kind": "user",
    "methods": {},
    "version": 1
  }
}